:020000040000FA
:1000000018840000D5000000D9000000DB000000CB
:1000100000000000000000000000000000000000E0
:10002000000000000000000000000000DF000000F1
:100030000000000000000000E300000000000000DD
:10004000EB00000015010000EB00000000000000C4
:10005000EB000000EB000000EB000000EB000000F4
:10006000EB000000EB000000EB000000D1010000FD
:10007000EB000000EB000000EB000000EB000000D4
:10008000EB000000EB000000EB000000EB000000C4
:10009000EB000000EB000000EB000000EB000000B4
:1000A000EB000000EB000000EB000000EB000000A4
:1000B000EB000000EB000000EB000000000000007F
:1000C0000348854600F014F8004800471902000074
:1000D0001884000005480047FEE7FEE7FEE7FEE75C
:1000E000FEE7FEE7FEE7FEE7FEE7FEE7C1000000F1
:1000F000064C0125064E05E0E36807CC2B430C3C7B
:1001000098471034B442F7D3FFF7DEFFB402000083
:10011000D402000010B504490020044C0863606854
:1001200080470120207010BD003104400080000095
:10013000EFF31080C007C00F72B60221024A11709F
:10014000002800D162B6704700800000BFF34F8FD7
:1001500040BF704710B5094902240C70084A14606A
:10016000084B00221A6348600748046011460120CA
:1001700000F00CF802488038046010BD00800000D8
:1001800080E100E00031044080E200E08307FF22CC
:10019000DB0E9A408907090E994000280BDA000708
:1001A000000F0838830808489B001818C369934358
:1001B0000B43C3617047830804489B001818036809
:1001C00093430B430360704700ED00E000E400E060
:1001D00007488168012211438160064801680029AF
:1001E00002D00168491E01E07D21C900016070470D
:1001F00000000C400C80000002E008C8121F08C17B
:10020000002AFAD170477047002001E001C1121F97
:10021000002AFBD17047FFFF00F03CF81049086945
:100220000226304308610F48FFF794FFFFF78EFF67
:100230000E4D0D48A8600E4C01270E48007801288D
:1002400005D12069304320616F60FFF771FF686856
:10025000002803D0FFF77AFF0020686020BFECE79A
:1002600000620F4091020000102700000C80000087
:1002700000630F400080000010B5044CC0018900ED
:10028000D21840180019026010BD0000006008403C
:100290007047FFFF10B50023182201210820FFF747
:1002A000EBFF0348016902221143016110BD000008
:1002B00000600F40D4020000008000001800000021
:1002C000F8010000EC0200001880000000040000AB
:1002D0000802000000000000000000000000000014
:0C02E000E8030000000000000000000027
:04000005000000C136
:00000001FF
